{
  "contractName": "Voting",
  "abi": [
    {
      "constant": true,
      "inputs": [
        {
          "name": "",
          "type": "bytes32"
        }
      ],
      "name": "votesReceived",
      "outputs": [
        {
          "name": "",
          "type": "uint8"
        }
      ],
      "payable": false,
      "stateMutability": "view",
      "type": "function"
    },
    {
      "constant": true,
      "inputs": [
        {
          "name": "",
          "type": "uint256"
        }
      ],
      "name": "candidateNames",
      "outputs": [
        {
          "name": "",
          "type": "bytes32"
        }
      ],
      "payable": false,
      "stateMutability": "view",
      "type": "function"
    },
    {
      "constant": false,
      "inputs": [
        {
          "name": "_candidateNames",
          "type": "bytes32[]"
        }
      ],
      "name": "voting",
      "outputs": [],
      "payable": false,
      "stateMutability": "nonpayable",
      "type": "function"
    },
    {
      "constant": false,
      "inputs": [
        {
          "name": "_candidateName",
          "type": "bytes32"
        }
      ],
      "name": "voteForCandidate",
      "outputs": [],
      "payable": false,
      "stateMutability": "nonpayable",
      "type": "function"
    },
    {
      "constant": true,
      "inputs": [
        {
          "name": "_candidateName",
          "type": "bytes32"
        }
      ],
      "name": "totalVotesFor",
      "outputs": [
        {
          "name": "",
          "type": "uint8"
        }
      ],
      "payable": false,
      "stateMutability": "view",
      "type": "function"
    },
    {
      "constant": true,
      "inputs": [
        {
          "name": "_candidateName",
          "type": "bytes32"
        }
      ],
      "name": "validCandidate",
      "outputs": [
        {
          "name": "",
          "type": "bool"
        }
      ],
      "payable": false,
      "stateMutability": "view",
      "type": "function"
    }
  ],
  "bytecode": "0x6060604052341561000f57600080fd5b6103db8061001e6000396000f300606060405260043610610078576000357c0100000000000000000000000000000000000000000000000000000000900463ffffffff1680631d1b1bfa1461007d5780632f265cf7146100d7578063392e6678146101185780637021939f146101575780638287e42f14610198578063cc9ab267146101d7575b600080fd5b341561008857600080fd5b6100d56004808035906020019082018035906020019080806020026020016040519081016040528093929190818152602001838360200280828437820191505050505050919050506101fe565b005b34156100e257600080fd5b6100fc600480803560001916906020019091905050610218565b604051808260ff1660ff16815260200191505060405180910390f35b341561012357600080fd5b61013d60048080356000191690602001909190505061024a565b604051808215151515815260200191505060405180910390f35b341561016257600080fd5b61017c6004808035600019169060200190919050506102aa565b604051808260ff1660ff16815260200191505060405180910390f35b34156101a357600080fd5b6101b960048080359060200190919050506102ca565b60405180826000191660001916815260200191505060405180910390f35b34156101e257600080fd5b6101fc6004808035600019169060200190919050506102ee565b005b8060009080519060200190610214929190610337565b5050565b600060016000836000191660001916815260200190815260200160002060009054906101000a900460ff169050919050565b600080600090505b60008054905081101561029f57826000191660008281548110151561027357fe5b90600052602060002090015460001916141561029257600191506102a4565b8080600101915050610252565b600091505b50919050565b60016020528060005260406000206000915054906101000a900460ff1681565b6000818154811015156102d957fe5b90600052602060002090016000915090505481565b6001806000836000191660001916815260200190815260200160002060008282829054906101000a900460ff160192506101000a81548160ff021916908360ff16021790555050565b828054828255906000526020600020908101928215610379579160200282015b82811115610378578251829060001916905591602001919060010190610357565b5b509050610386919061038a565b5090565b6103ac91905b808211156103a8576000816000905550600101610390565b5090565b905600a165627a7a723058200186732936802c981d3013a765b0ef771c838eb13d9f4f2bf75039c171baca470029",
  "source": "pragma solidity ^0.4.0;\n\ncontract Voting {\n\n    //initialize a few candidates\n    //vote for candidate\n    //lookup vote count for each candidate\n    bytes32[] public candidateNames;\n    mapping (bytes32 => uint8) public votesReceived;\n\n    function voting(bytes32[] _candidateNames) public {\n        candidateNames = _candidateNames;\n    }\n    \n    function voteForCandidate(bytes32 _candidateName) public { \n        votesReceived[_candidateName]+= 1;        \n    }\n    \n    function totalVotesFor(bytes32 _candidateName) view public returns(uint8) {\n        return votesReceived[_candidateName];\n    }\n    \n    function validCandidate(bytes32 _candidateName) view public returns(bool) {\n        for(uint i =0; i<candidateNames.length; i++) {\n            if(candidateNames[i] == _candidateName) {\n                return true;\n            }\n        }\n        return false;\n    }\n}\n",
  "sourcePath": "/Users/sushil/Documents/blockchain/voting_dapp/contracts/Voting.sol",
  "compiler": {
    "name": "solc",
    "version": "0.4.19+commit.c4cbbb05.Emscripten.clang"
  },
  "schemaVersion": "2.0.0",
  "updatedAt": "2018-03-13T01:33:39.845Z"
}